:020000000A28CC
:100014000F2021202820031383120317831688013D
:100024008901031383168501860187010814881446
:1000340003138312850186018701890108000313D4
:1000440083160F178F120F120F1408000313831651
:1000540081128111011581140110031383123C20B4
:100064004020492032280B1D35283C20850A051ADA
:10007400850108003C3081000B1108000A30F400AF
:100084003520F40B4228860A061A8601080008184F
:10009400562088185D207208002187000800FA3075
:1000A400F000F00B53280800512008185728F20AD2
:1000B400721AF2010800512088185E28F203F21B1C
:0E00C400642008007212F2127213F213080088
:100200008A010A1482073F3406345B344F34663463
:100210006D347D3407347F34673477347C3439343B
:060220005E3479347134F4
:04400E00C430FF3F7C
:00000001FF
